{
  "contractName": "ModelS",
  "abi": [
    {
      "constant": false,
      "inputs": [],
      "name": "tick",
      "outputs": [],
      "payable": false,
      "stateMutability": "nonpayable",
      "type": "function"
    },
    {
      "constant": false,
      "inputs": [
        {
          "name": "_account",
          "type": "address"
        }
      ],
      "name": "register",
      "outputs": [],
      "payable": false,
      "stateMutability": "nonpayable",
      "type": "function"
    },
    {
      "constant": true,
      "inputs": [],
      "name": "oneWatt",
      "outputs": [
        {
          "name": "",
          "type": "uint256"
        }
      ],
      "payable": false,
      "stateMutability": "view",
      "type": "function"
    },
    {
      "constant": true,
      "inputs": [],
      "name": "watt",
      "outputs": [
        {
          "name": "",
          "type": "address"
        }
      ],
      "payable": false,
      "stateMutability": "view",
      "type": "function"
    },
    {
      "constant": true,
      "inputs": [],
      "name": "owner",
      "outputs": [
        {
          "name": "",
          "type": "address"
        }
      ],
      "payable": false,
      "stateMutability": "view",
      "type": "function"
    },
    {
      "constant": false,
      "inputs": [
        {
          "name": "_owner",
          "type": "address"
        }
      ],
      "name": "changeOwner",
      "outputs": [],
      "payable": false,
      "stateMutability": "nonpayable",
      "type": "function"
    },
    {
      "constant": true,
      "inputs": [],
      "name": "tsl",
      "outputs": [
        {
          "name": "",
          "type": "address"
        }
      ],
      "payable": false,
      "stateMutability": "view",
      "type": "function"
    },
    {
      "inputs": [
        {
          "name": "_watt",
          "type": "address"
        },
        {
          "name": "_tsl",
          "type": "address"
        },
        {
          "name": "_allowanceLimit",
          "type": "uint256"
        },
        {
          "name": "_delta",
          "type": "uint256"
        },
        {
          "name": "_tslPerWatt",
          "type": "uint256"
        }
      ],
      "payable": false,
      "stateMutability": "nonpayable",
      "type": "constructor"
    },
    {
      "anonymous": false,
      "inputs": [
        {
          "indexed": true,
          "name": "_sender",
          "type": "address"
        },
        {
          "indexed": false,
          "name": "_amount",
          "type": "uint256"
        },
        {
          "indexed": false,
          "name": "_value",
          "type": "uint256"
        }
      ],
      "name": "Tick",
      "type": "event"
    }
  ],
  "bytecode": "0x6060604052341561000f57600080fd5b60405160a080610bb983398101604052808051906020019091908051906020019091908051906020019091908051906020019091908051906020019091905050600080336000806101000a81548173ffffffffffffffffffffffffffffffffffffffff021916908373ffffffffffffffffffffffffffffffffffffffff16021790555060016003819055508673ffffffffffffffffffffffffffffffffffffffff1663313ce5676000604051602001526040518163ffffffff167c0100000000000000000000000000000000000000000000000000000000028152600401602060405180830381600087803b151561010657600080fd5b6102c65a03f1151561011757600080fd5b505050604051805190509150600090505b818160ff16101561014f57600a600360008282540292505081905550806001019050610128565b85600260006101000a81548173ffffffffffffffffffffffffffffffffffffffff021916908373ffffffffffffffffffffffffffffffffffffffff16021790555086600160006101000a81548173ffffffffffffffffffffffffffffffffffffffff021916908373ffffffffffffffffffffffffffffffffffffffff160217905550600060048190555084600581905550426006819055508360078190555082600881905550505050505050506109ae8061020b6000396000f300606060405260043610610083576000357c0100000000000000000000000000000000000000000000000000000000900463ffffffff1680633eaf5d9f146100885780634420e4861461009d57806355410d66146100d6578063648bdff5146100ff5780638da5cb5b14610154578063a6f9dae1146101a9578063f4415058146101e2575b600080fd5b341561009357600080fd5b61009b610237565b005b34156100a857600080fd5b6100d4600480803573ffffffffffffffffffffffffffffffffffffffff169060200190919050506106a1565b005b34156100e157600080fd5b6100e961082b565b6040518082815260200191505060405180910390f35b341561010a57600080fd5b610112610831565b604051808273ffffffffffffffffffffffffffffffffffffffff1673ffffffffffffffffffffffffffffffffffffffff16815260200191505060405180910390f35b341561015f57600080fd5b610167610857565b604051808273ffffffffffffffffffffffffffffffffffffffff1673ffffffffffffffffffffffffffffffffffffffff16815260200191505060405180910390f35b34156101b457600080fd5b6101e0600480803573ffffffffffffffffffffffffffffffffffffffff1690602001909190505061087c565b005b34156101ed57600080fd5b6101f561091a565b604051808273ffffffffffffffffffffffffffffffffffffffff1673ffffffffffffffffffffffffffffffffffffffff16815260200191505060405180910390f35b60008060008060008060009054906101000a900473ffffffffffffffffffffffffffffffffffffffff1673ffffffffffffffffffffffffffffffffffffffff163373ffffffffffffffffffffffffffffffffffffffff1614151561029a57600080fd5b600754600654420310156102ad57600080fd5b60009450600093505b60045484101561063b57600160009054906101000a900473ffffffffffffffffffffffffffffffffffffffff1673ffffffffffffffffffffffffffffffffffffffff166370a082316009600087815260200190815260200160002060009054906101000a900473ffffffffffffffffffffffffffffffffffffffff166000604051602001526040518263ffffffff167c0100000000000000000000000000000000000000000000000000000000028152600401808273ffffffffffffffffffffffffffffffffffffffff1673ffffffffffffffffffffffffffffffffffffffff168152602001915050602060405180830381600087803b15156103b857600080fd5b6102c65a03f115156103c957600080fd5b50505060405180519050925060008314156103e357610630565b6103f1600354600754610940565b61040a600654420361040586600854610940565b610940565b81151561041357fe5b049150600260009054906101000a900473ffffffffffffffffffffffffffffffffffffffff1673ffffffffffffffffffffffffffffffffffffffff166370a082316009600087815260200190815260200160002060009054906101000a900473ffffffffffffffffffffffffffffffffffffffff166000604051602001526040518263ffffffff167c0100000000000000000000000000000000000000000000000000000000028152600401808273ffffffffffffffffffffffffffffffffffffffff1673ffffffffffffffffffffffffffffffffffffffff168152602001915050602060405180830381600087803b151561050e57600080fd5b6102c65a03f1151561051f57600080fd5b50505060405180519050905081811015610537578091505b600260009054906101000a900473ffffffffffffffffffffffffffffffffffffffff1673ffffffffffffffffffffffffffffffffffffffff1663a9059cbb33846000604051602001526040518363ffffffff167c0100000000000000000000000000000000000000000000000000000000028152600401808373ffffffffffffffffffffffffffffffffffffffff1673ffffffffffffffffffffffffffffffffffffffff16815260200182815260200192505050602060405180830381600087803b151561060457600080fd5b6102c65a03f1151561061557600080fd5b50505060405180519050151561062a57610630565b81850194505b8360010193506102b6565b426006819055503373ffffffffffffffffffffffffffffffffffffffff167fa6444725d4ac5fd35cca0efab3d3879d132889022d6f4eb5f03314bb82a4efcf60045487604051808381526020018281526020019250505060405180910390a25050505050565b600554600260009054906101000a900473ffffffffffffffffffffffffffffffffffffffff1673ffffffffffffffffffffffffffffffffffffffff1663dd62ed3e83306000604051602001526040518363ffffffff167c0100000000000000000000000000000000000000000000000000000000028152600401808373ffffffffffffffffffffffffffffffffffffffff1673ffffffffffffffffffffffffffffffffffffffff1681526020018273ffffffffffffffffffffffffffffffffffffffff1673ffffffffffffffffffffffffffffffffffffffff16815260200192505050602060405180830381600087803b151561079d57600080fd5b6102c65a03f115156107ae57600080fd5b5050506040518051905010156107c357600080fd5b8060096000600454815260200190815260200160002060006101000a81548173ffffffffffffffffffffffffffffffffffffffff021916908373ffffffffffffffffffffffffffffffffffffffff160217905550600160046000828254019250508190555050565b60035481565b600160009054906101000a900473ffffffffffffffffffffffffffffffffffffffff1681565b6000809054906101000a900473ffffffffffffffffffffffffffffffffffffffff1681565b6000809054906101000a900473ffffffffffffffffffffffffffffffffffffffff1673ffffffffffffffffffffffffffffffffffffffff163373ffffffffffffffffffffffffffffffffffffffff161415156108d757600080fd5b806000806101000a81548173ffffffffffffffffffffffffffffffffffffffff021916908373ffffffffffffffffffffffffffffffffffffffff16021790555050565b600260009054906101000a900473ffffffffffffffffffffffffffffffffffffffff1681565b60008082840290506109696000851480610964575083858381151561096157fe5b04145b610973565b8091505092915050565b80151561097f57600080fd5b505600a165627a7a72305820c8603fda38677f9c34d5d15cea1499c956591f0b6c8b61567c2c0f6142184ed90029",
  "source": "pragma solidity ^0.4.15;\nimport './SafeMath.sol';\nimport './Owner.sol';\nimport './Watt.sol';\nimport './Token.sol';\n\n\ncontract ModelS is SafeMath , Owner{\n\taddress public watt;\n    address public tsl;\n    uint public oneWatt;\n    uint accountCount;\n    uint allowanceLimit;\n    uint lastBlock;\n    uint delta;\n    uint tslPerWatt;\n    mapping (uint => address) accounts;\n    event Tick(address indexed _sender, uint256 _amount, uint256 _value);\n    \n    function ModelS(address _watt, address _tsl, uint _allowanceLimit, uint _delta, uint _tslPerWatt) {\n        oneWatt = 1;\n        uint d = Token(_watt).decimals();\n        for (uint8 i=0;i<d;++i) oneWatt *= 10;\n        tsl = _tsl;\n        watt = _watt;\n        accountCount = 0;\n        allowanceLimit = _allowanceLimit;\n        lastBlock = block.timestamp;\n        delta = _delta;\n        tslPerWatt = _tslPerWatt;\n    }\n\n    function register(address _account) {\n        if (Token(tsl).allowance(_account, this) < allowanceLimit) revert();\n        accounts[accountCount] = _account;\n        accountCount += 1;\n    }\n\n    function tick() onlyOwner {\n        if ((block.timestamp - lastBlock) < delta) revert();\n        uint totalValue = 0;\n        for (uint i=0; i < accountCount; ++i) {\n            uint256 wattBalance = Token(watt).balanceOf(accounts[i]);\n            if (wattBalance == 0) continue;\n            uint256 amount = safeMul(block.timestamp - lastBlock, safeMul(wattBalance, tslPerWatt)) / safeMul(oneWatt, delta);\n            uint256 tslBalance = Token(tsl).balanceOf(accounts[i]);\n            if (tslBalance < amount) amount = tslBalance;\n            if (!Token(tsl).transfer(msg.sender, amount) ) continue;\n            totalValue += amount;\n        }\n        lastBlock = block.timestamp;\n        Tick(msg.sender, accountCount, totalValue);\n    }\n}\n",
  "sourcePath": "/home/jiang/source/tsl/contracts/ModelS.sol",
  "compiler": {
    "name": "solc",
    "version": "0.4.18+commit.9cf6e910.Emscripten.clang"
  },
  "schemaVersion": "1.0.1",
  "updatedAt": "2017-12-28T08:17:00.446Z"
}