{
  "contractName": "Token",
  "abi": [
    {
      "constant": true,
      "inputs": [],
      "name": "name",
      "outputs": [
        {
          "name": "",
          "type": "string"
        }
      ],
      "payable": false,
      "stateMutability": "view",
      "type": "function"
    },
    {
      "constant": false,
      "inputs": [
        {
          "name": "_spender",
          "type": "address"
        },
        {
          "name": "_value",
          "type": "uint256"
        }
      ],
      "name": "approve",
      "outputs": [
        {
          "name": "success",
          "type": "bool"
        }
      ],
      "payable": false,
      "stateMutability": "nonpayable",
      "type": "function"
    },
    {
      "constant": true,
      "inputs": [],
      "name": "totalSupply",
      "outputs": [
        {
          "name": "supply",
          "type": "uint256"
        }
      ],
      "payable": false,
      "stateMutability": "view",
      "type": "function"
    },
    {
      "constant": false,
      "inputs": [
        {
          "name": "_from",
          "type": "address"
        },
        {
          "name": "_to",
          "type": "address"
        },
        {
          "name": "_value",
          "type": "uint256"
        }
      ],
      "name": "transferFrom",
      "outputs": [
        {
          "name": "success",
          "type": "bool"
        }
      ],
      "payable": false,
      "stateMutability": "nonpayable",
      "type": "function"
    },
    {
      "constant": true,
      "inputs": [],
      "name": "decimals",
      "outputs": [
        {
          "name": "",
          "type": "uint256"
        }
      ],
      "payable": false,
      "stateMutability": "view",
      "type": "function"
    },
    {
      "constant": true,
      "inputs": [
        {
          "name": "_owner",
          "type": "address"
        }
      ],
      "name": "balanceOf",
      "outputs": [
        {
          "name": "balance",
          "type": "uint256"
        }
      ],
      "payable": false,
      "stateMutability": "view",
      "type": "function"
    },
    {
      "constant": false,
      "inputs": [
        {
          "name": "_to",
          "type": "address"
        },
        {
          "name": "_value",
          "type": "uint256"
        }
      ],
      "name": "transfer",
      "outputs": [
        {
          "name": "success",
          "type": "bool"
        }
      ],
      "payable": false,
      "stateMutability": "nonpayable",
      "type": "function"
    },
    {
      "constant": true,
      "inputs": [
        {
          "name": "_owner",
          "type": "address"
        },
        {
          "name": "_spender",
          "type": "address"
        }
      ],
      "name": "allowance",
      "outputs": [
        {
          "name": "remaining",
          "type": "uint256"
        }
      ],
      "payable": false,
      "stateMutability": "view",
      "type": "function"
    },
    {
      "anonymous": false,
      "inputs": [
        {
          "indexed": true,
          "name": "_from",
          "type": "address"
        },
        {
          "indexed": true,
          "name": "_to",
          "type": "address"
        },
        {
          "indexed": false,
          "name": "_value",
          "type": "uint256"
        }
      ],
      "name": "Transfer",
      "type": "event"
    },
    {
      "anonymous": false,
      "inputs": [
        {
          "indexed": true,
          "name": "_owner",
          "type": "address"
        },
        {
          "indexed": true,
          "name": "_spender",
          "type": "address"
        },
        {
          "indexed": false,
          "name": "_value",
          "type": "uint256"
        }
      ],
      "name": "Approval",
      "type": "event"
    }
  ],
  "bytecode": "0x6060604052341561000f57600080fd5b6104568061001e6000396000f30060606040526004361061008e576000357c0100000000000000000000000000000000000000000000000000000000900463ffffffff16806306fdde0314610093578063095ea7b31461012157806318160ddd1461017b57806323b872dd146101a4578063313ce5671461021d57806370a0823114610246578063a9059cbb14610293578063dd62ed3e146102ed575b600080fd5b341561009e57600080fd5b6100a6610359565b6040518080602001828103825283818151815260200191508051906020019080838360005b838110156100e65780820151818401526020810190506100cb565b50505050905090810190601f1680156101135780820380516001836020036101000a031916815260200191505b509250505060405180910390f35b341561012c57600080fd5b610161600480803573ffffffffffffffffffffffffffffffffffffffff169060200190919080359060200190919050506103f7565b604051808215151515815260200191505060405180910390f35b341561018657600080fd5b61018e6103ff565b6040518082815260200191505060405180910390f35b34156101af57600080fd5b610203600480803573ffffffffffffffffffffffffffffffffffffffff1690602001909190803573ffffffffffffffffffffffffffffffffffffffff16906020019091908035906020019091905050610404565b604051808215151515815260200191505060405180910390f35b341561022857600080fd5b61023061040d565b6040518082815260200191505060405180910390f35b341561025157600080fd5b61027d600480803573ffffffffffffffffffffffffffffffffffffffff16906020019091905050610413565b6040518082815260200191505060405180910390f35b341561029e57600080fd5b6102d3600480803573ffffffffffffffffffffffffffffffffffffffff1690602001909190803590602001909190505061041a565b604051808215151515815260200191505060405180910390f35b34156102f857600080fd5b610343600480803573ffffffffffffffffffffffffffffffffffffffff1690602001909190803573ffffffffffffffffffffffffffffffffffffffff16906020019091905050610422565b6040518082815260200191505060405180910390f35b60018054600181600116156101000203166002900480601f0160208091040260200160405190810160405280929190818152602001828054600181600116156101000203166002900480156103ef5780601f106103c4576101008083540402835291602001916103ef565b820191906000526020600020905b8154815290600101906020018083116103d257829003601f168201915b505050505081565b600092915050565b600090565b60009392505050565b60005481565b6000919050565b600092915050565b6000929150505600a165627a7a72305820dd00f01241a851a17c4c8554c41e7fb07bfe8e409d7776ec7a9e1045c970d9200029",
  "source": "pragma solidity ^0.4.15;\n\n\ncontract Token {\n  /// @return total amount of tokens\n  function totalSupply() constant returns (uint256 supply) {}\n\n  /// @param _owner The address from which the balance will be retrieved\n  /// @return The balance\n  function balanceOf(address _owner) constant returns (uint256 balance) {}\n\n  /// @notice send `_value` token to `_to` from `msg.sender`\n  /// @param _to The address of the recipient\n  /// @param _value The amount of token to be transferred\n  /// @return Whether the transfer was successful or not\n  function transfer(address _to, uint256 _value) returns (bool success) {}\n\n  /// @notice send `_value` token to `_to` from `_from` on the condition it is approved by `_from`\n  /// @param _from The address of the sender\n  /// @param _to The address of the recipient\n  /// @param _value The amount of token to be transferred\n  /// @return Whether the transfer was successful or not\n  function transferFrom(address _from, address _to, uint256 _value) returns (bool success) {}\n\n  /// @notice `msg.sender` approves `_addr` to spend `_value` tokens\n  /// @param _spender The address of the account able to transfer the tokens\n  /// @param _value The amount of wei to be approved for transfer\n  /// @return Whether the approval was successful or not\n  function approve(address _spender, uint256 _value) returns (bool success) {}\n\n  /// @param _owner The address of the account owning tokens\n  /// @param _spender The address of the account able to transfer the tokens\n  /// @return Amount of remaining tokens allowed to spent\n  function allowance(address _owner, address _spender) constant returns (uint256 remaining) {}\n\n  event Transfer(address indexed _from, address indexed _to, uint256 _value);\n  event Approval(address indexed _owner, address indexed _spender, uint256 _value);\n\n  uint public decimals;\n  string public name;\n}\n\n\n",
  "sourcePath": "/home/jiang/source/tsl/contracts/Token.sol",
  "compiler": {
    "name": "solc",
    "version": "0.4.18+commit.9cf6e910.Emscripten.clang"
  },
  "schemaVersion": "1.0.1",
  "updatedAt": "2017-12-28T08:17:00.447Z"
}